{
  "_format": "hh-sol-artifact-1",
  "contractName": "DegenToken",
  "sourceName": "contracts/DegenToken.sol",
  "abi": [
    {
      "inputs": [
        {
          "internalType": "address",
          "name": "_owner",
          "type": "address"
        }
      ],
      "stateMutability": "nonpayable",
      "type": "constructor"
    },
    {
      "anonymous": false,
      "inputs": [
        {
          "indexed": true,
          "internalType": "address",
          "name": "owner",
          "type": "address"
        },
        {
          "indexed": true,
          "internalType": "address",
          "name": "spender",
          "type": "address"
        },
        {
          "indexed": false,
          "internalType": "uint256",
          "name": "value",
          "type": "uint256"
        }
      ],
      "name": "Approval",
      "type": "event"
    },
    {
      "anonymous": false,
      "inputs": [
        {
          "indexed": true,
          "internalType": "address",
          "name": "from",
          "type": "address"
        },
        {
          "indexed": true,
          "internalType": "address",
          "name": "to",
          "type": "address"
        },
        {
          "indexed": false,
          "internalType": "uint256",
          "name": "value",
          "type": "uint256"
        }
      ],
      "name": "Transfer",
      "type": "event"
    },
    {
      "inputs": [
        {
          "internalType": "uint256",
          "name": "itemId",
          "type": "uint256"
        },
        {
          "internalType": "string",
          "name": "name",
          "type": "string"
        },
        {
          "internalType": "uint256",
          "name": "cost",
          "type": "uint256"
        }
      ],
      "name": "addItem",
      "outputs": [],
      "stateMutability": "nonpayable",
      "type": "function"
    },
    {
      "inputs": [
        {
          "internalType": "address",
          "name": "owner",
          "type": "address"
        },
        {
          "internalType": "address",
          "name": "spender",
          "type": "address"
        }
      ],
      "name": "allowance",
      "outputs": [
        {
          "internalType": "uint256",
          "name": "",
          "type": "uint256"
        }
      ],
      "stateMutability": "view",
      "type": "function"
    },
    {
      "inputs": [
        {
          "internalType": "address",
          "name": "spender",
          "type": "address"
        },
        {
          "internalType": "uint256",
          "name": "amount",
          "type": "uint256"
        }
      ],
      "name": "approve",
      "outputs": [
        {
          "internalType": "bool",
          "name": "",
          "type": "bool"
        }
      ],
      "stateMutability": "nonpayable",
      "type": "function"
    },
    {
      "inputs": [
        {
          "internalType": "address",
          "name": "account",
          "type": "address"
        }
      ],
      "name": "balanceOf",
      "outputs": [
        {
          "internalType": "uint256",
          "name": "",
          "type": "uint256"
        }
      ],
      "stateMutability": "view",
      "type": "function"
    },
    {
      "inputs": [
        {
          "internalType": "uint256",
          "name": "amount",
          "type": "uint256"
        }
      ],
      "name": "burn",
      "outputs": [],
      "stateMutability": "nonpayable",
      "type": "function"
    },
    {
      "inputs": [],
      "name": "checkBalance",
      "outputs": [
        {
          "internalType": "uint256",
          "name": "",
          "type": "uint256"
        }
      ],
      "stateMutability": "view",
      "type": "function"
    },
    {
      "inputs": [],
      "name": "decimals",
      "outputs": [
        {
          "internalType": "uint8",
          "name": "",
          "type": "uint8"
        }
      ],
      "stateMutability": "view",
      "type": "function"
    },
    {
      "inputs": [
        {
          "internalType": "address",
          "name": "spender",
          "type": "address"
        },
        {
          "internalType": "uint256",
          "name": "subtractedValue",
          "type": "uint256"
        }
      ],
      "name": "decreaseAllowance",
      "outputs": [
        {
          "internalType": "bool",
          "name": "",
          "type": "bool"
        }
      ],
      "stateMutability": "nonpayable",
      "type": "function"
    },
    {
      "inputs": [],
      "name": "displayItems",
      "outputs": [
        {
          "internalType": "string",
          "name": "",
          "type": "string"
        }
      ],
      "stateMutability": "view",
      "type": "function"
    },
    {
      "inputs": [
        {
          "internalType": "address",
          "name": "spender",
          "type": "address"
        },
        {
          "internalType": "uint256",
          "name": "addedValue",
          "type": "uint256"
        }
      ],
      "name": "increaseAllowance",
      "outputs": [
        {
          "internalType": "bool",
          "name": "",
          "type": "bool"
        }
      ],
      "stateMutability": "nonpayable",
      "type": "function"
    },
    {
      "inputs": [
        {
          "internalType": "uint256",
          "name": "",
          "type": "uint256"
        }
      ],
      "name": "items",
      "outputs": [
        {
          "internalType": "string",
          "name": "name",
          "type": "string"
        },
        {
          "internalType": "uint256",
          "name": "cost",
          "type": "uint256"
        }
      ],
      "stateMutability": "view",
      "type": "function"
    },
    {
      "inputs": [
        {
          "internalType": "address",
          "name": "to",
          "type": "address"
        },
        {
          "internalType": "uint256",
          "name": "amount",
          "type": "uint256"
        }
      ],
      "name": "mint",
      "outputs": [],
      "stateMutability": "nonpayable",
      "type": "function"
    },
    {
      "inputs": [],
      "name": "name",
      "outputs": [
        {
          "internalType": "string",
          "name": "",
          "type": "string"
        }
      ],
      "stateMutability": "view",
      "type": "function"
    },
    {
      "inputs": [],
      "name": "owner",
      "outputs": [
        {
          "internalType": "address",
          "name": "",
          "type": "address"
        }
      ],
      "stateMutability": "view",
      "type": "function"
    },
    {
      "inputs": [
        {
          "internalType": "uint256",
          "name": "itemId",
          "type": "uint256"
        }
      ],
      "name": "redeemTokens",
      "outputs": [
        {
          "internalType": "bool",
          "name": "",
          "type": "bool"
        }
      ],
      "stateMutability": "payable",
      "type": "function"
    },
    {
      "inputs": [],
      "name": "symbol",
      "outputs": [
        {
          "internalType": "string",
          "name": "",
          "type": "string"
        }
      ],
      "stateMutability": "view",
      "type": "function"
    },
    {
      "inputs": [],
      "name": "totalSupply",
      "outputs": [
        {
          "internalType": "uint256",
          "name": "",
          "type": "uint256"
        }
      ],
      "stateMutability": "view",
      "type": "function"
    },
    {
      "inputs": [
        {
          "internalType": "address",
          "name": "to",
          "type": "address"
        },
        {
          "internalType": "uint256",
          "name": "amount",
          "type": "uint256"
        }
      ],
      "name": "transfer",
      "outputs": [
        {
          "internalType": "bool",
          "name": "",
          "type": "bool"
        }
      ],
      "stateMutability": "nonpayable",
      "type": "function"
    },
    {
      "inputs": [
        {
          "internalType": "address",
          "name": "from",
          "type": "address"
        },
        {
          "internalType": "address",
          "name": "to",
          "type": "address"
        },
        {
          "internalType": "uint256",
          "name": "amount",
          "type": "uint256"
        }
      ],
      "name": "transferFrom",
      "outputs": [
        {
          "internalType": "bool",
          "name": "",
          "type": "bool"
        }
      ],
      "stateMutability": "nonpayable",
      "type": "function"
    },
    {
      "inputs": [
        {
          "internalType": "address",
          "name": "",
          "type": "address"
        },
        {
          "internalType": "uint256",
          "name": "",
          "type": "uint256"
        }
      ],
      "name": "userRedeemedItems",
      "outputs": [
        {
          "internalType": "bool",
          "name": "",
          "type": "bool"
        }
      ],
      "stateMutability": "view",
      "type": "function"
    }
  ],
  "bytecode": "0x60806040523480156200001157600080fd5b506040516200340738038062003407833981810160405281019062000037919062000494565b6040518060400160405280600581526020017f446567656e0000000000000000000000000000000000000000000000000000008152506040518060400160405280600381526020017f44474e00000000000000000000000000000000000000000000000000000000008152508160039081620000b4919062000740565b508060049081620000c6919062000740565b50505080600560006101000a81548173ffffffffffffffffffffffffffffffffffffffff021916908373ffffffffffffffffffffffffffffffffffffffff16021790555062000120336305f5e100620002b360201b60201c565b60405180604001604052806040518060400160405280600581526020017f5368697274000000000000000000000000000000000000000000000000000000815250815260200160648152506006600060018152602001908152602001600020600082015181600001908162000196919062000740565b506020820151816001015590505060405180604001604052806040518060400160405280600681526020017f4a61636b65740000000000000000000000000000000000000000000000000000815250815260200160fa815250600660006002815260200190815260200160002060008201518160000190816200021a919062000740565b506020820151816001015590505060405180604001604052806040518060400160405280600881526020017f4261636b7061636b00000000000000000000000000000000000000000000000081525081526020016096815250600660006003815260200190815260200160002060008201518160000190816200029e919062000740565b50602082015181600101559050505062000942565b600073ffffffffffffffffffffffffffffffffffffffff168273ffffffffffffffffffffffffffffffffffffffff160362000325576040517f08c379a00000000000000000000000000000000000000000000000000000000081526004016200031c9062000888565b60405180910390fd5b62000339600083836200042060201b60201c565b80600260008282546200034d9190620008d9565b92505081905550806000808473ffffffffffffffffffffffffffffffffffffffff1673ffffffffffffffffffffffffffffffffffffffff168152602001908152602001600020600082825401925050819055508173ffffffffffffffffffffffffffffffffffffffff16600073ffffffffffffffffffffffffffffffffffffffff167fddf252ad1be2c89b69c2b068fc378daa952ba7f163c4a11628f55a4df523b3ef8360405162000400919062000925565b60405180910390a36200041c600083836200042560201b60201c565b5050565b505050565b505050565b600080fd5b600073ffffffffffffffffffffffffffffffffffffffff82169050919050565b60006200045c826200042f565b9050919050565b6200046e816200044f565b81146200047a57600080fd5b50565b6000815190506200048e8162000463565b92915050565b600060208284031215620004ad57620004ac6200042a565b5b6000620004bd848285016200047d565b91505092915050565b600081519050919050565b7f4e487b7100000000000000000000000000000000000000000000000000000000600052604160045260246000fd5b7f4e487b7100000000000000000000000000000000000000000000000000000000600052602260045260246000fd5b600060028204905060018216806200054857607f821691505b6020821081036200055e576200055d62000500565b5b50919050565b60008190508160005260206000209050919050565b60006020601f8301049050919050565b600082821b905092915050565b600060088302620005c87fffffffffffffffffffffffffffffffffffffffffffffffffffffffffffffffff8262000589565b620005d4868362000589565b95508019841693508086168417925050509392505050565b6000819050919050565b6000819050919050565b6000620006216200061b6200061584620005ec565b620005f6565b620005ec565b9050919050565b6000819050919050565b6200063d8362000600565b620006556200064c8262000628565b84845462000596565b825550505050565b600090565b6200066c6200065d565b6200067981848462000632565b505050565b5b81811015620006a1576200069560008262000662565b6001810190506200067f565b5050565b601f821115620006f057620006ba8162000564565b620006c58462000579565b81016020851015620006d5578190505b620006ed620006e48562000579565b8301826200067e565b50505b505050565b600082821c905092915050565b60006200071560001984600802620006f5565b1980831691505092915050565b600062000730838362000702565b9150826002028217905092915050565b6200074b82620004c6565b67ffffffffffffffff811115620007675762000766620004d1565b5b6200077382546200052f565b62000780828285620006a5565b600060209050601f831160018114620007b85760008415620007a3578287015190505b620007af858262000722565b8655506200081f565b601f198416620007c88662000564565b60005b82811015620007f257848901518255600182019150602085019450602081019050620007cb565b868310156200081257848901516200080e601f89168262000702565b8355505b6001600288020188555050505b505050505050565b600082825260208201905092915050565b7f45524332303a206d696e7420746f20746865207a65726f206164647265737300600082015250565b600062000870601f8362000827565b91506200087d8262000838565b602082019050919050565b60006020820190508181036000830152620008a38162000861565b9050919050565b7f4e487b7100000000000000000000000000000000000000000000000000000000600052601160045260246000fd5b6000620008e682620005ec565b9150620008f383620005ec565b92508282019050808211156200090e576200090d620008aa565b5b92915050565b6200091f81620005ec565b82525050565b60006020820190506200093c600083018462000914565b92915050565b612ab580620009526000396000f3fe60806040526004361061011f5760003560e01c806370a08231116100a0578063a9059cbb11610064578063a9059cbb14610416578063b776fc1514610453578063bfb231d21461047c578063c71daccb146104ba578063dd62ed3e146104e55761011f565b806370a08231146103165780638da5cb5b1461035357806395d89b411461037e578063a457c2d7146103a9578063a6e158f8146103e65761011f565b8063313ce567116100e7578063313ce56714610231578063395093511461025c5780633ef49ff21461029957806340c10f19146102c457806342966c68146102ed5761011f565b806306fdde0314610124578063095ea7b31461014f57806318160ddd1461018c57806322145184146101b757806323b872dd146101f4575b600080fd5b34801561013057600080fd5b50610139610522565b60405161014691906117db565b60405180910390f35b34801561015b57600080fd5b50610176600480360381019061017191906118a5565b6105b4565b6040516101839190611900565b60405180910390f35b34801561019857600080fd5b506101a16105d7565b6040516101ae919061192a565b60405180910390f35b3480156101c357600080fd5b506101de60048036038101906101d991906118a5565b6105e1565b6040516101eb9190611900565b60405180910390f35b34801561020057600080fd5b5061021b60048036038101906102169190611945565b610610565b6040516102289190611900565b60405180910390f35b34801561023d57600080fd5b5061024661063f565b60405161025391906119b4565b60405180910390f35b34801561026857600080fd5b50610283600480360381019061027e91906118a5565b610648565b6040516102909190611900565b60405180910390f35b3480156102a557600080fd5b506102ae61067f565b6040516102bb91906117db565b60405180910390f35b3480156102d057600080fd5b506102eb60048036038101906102e691906118a5565b6107a4565b005b3480156102f957600080fd5b50610314600480360381019061030f91906119cf565b610842565b005b34801561032257600080fd5b5061033d600480360381019061033891906119fc565b61089a565b60405161034a919061192a565b60405180910390f35b34801561035f57600080fd5b506103686108e2565b6040516103759190611a38565b60405180910390f35b34801561038a57600080fd5b50610393610908565b6040516103a091906117db565b60405180910390f35b3480156103b557600080fd5b506103d060048036038101906103cb91906118a5565b61099a565b6040516103dd9190611900565b60405180910390f35b61040060048036038101906103fb91906119cf565b610a11565b60405161040d9190611900565b60405180910390f35b34801561042257600080fd5b5061043d600480360381019061043891906118a5565b610af2565b60405161044a9190611900565b60405180910390f35b34801561045f57600080fd5b5061047a60048036038101906104759190611b88565b610bc2565b005b34801561048857600080fd5b506104a3600480360381019061049e91906119cf565b610ca2565b6040516104b1929190611bf7565b60405180910390f35b3480156104c657600080fd5b506104cf610d4e565b6040516104dc919061192a565b60405180910390f35b3480156104f157600080fd5b5061050c60048036038101906105079190611c27565b610d5e565b604051610519919061192a565b60405180910390f35b60606003805461053190611c96565b80601f016020809104026020016040519081016040528092919081815260200182805461055d90611c96565b80156105aa5780601f1061057f576101008083540402835291602001916105aa565b820191906000526020600020905b81548152906001019060200180831161058d57829003601f168201915b5050505050905090565b6000806105bf610de5565b90506105cc818585610ded565b600191505092915050565b6000600254905090565b60076020528160005260406000206020528060005260406000206000915091509054906101000a900460ff1681565b60008061061b610de5565b9050610628858285610fb6565b610633858585611042565b60019150509392505050565b60006012905090565b600080610653610de5565b90506106748185856106658589610d5e565b61066f9190611cf6565b610ded565b600191505092915050565b6060806000600190505b6003811161079c5760006006600083815260200190815260200160002060000180546106b490611c96565b80601f01602080910402602001604051908101604052809291908181526020018280546106e090611c96565b801561072d5780601f106107025761010080835404028352916020019161072d565b820191906000526020600020905b81548152906001019060200180831161071057829003601f168201915b5050505050905060006006600084815260200190815260200160002060010154905083610759846112b8565b83610763846112b8565b6040516020016107769493929190611e96565b60405160208183030381529060405293505050808061079490611f00565b915050610689565b508091505090565b600560009054906101000a900473ffffffffffffffffffffffffffffffffffffffff1673ffffffffffffffffffffffffffffffffffffffff163373ffffffffffffffffffffffffffffffffffffffff1614610834576040517f08c379a000000000000000000000000000000000000000000000000000000000815260040161082b90611f94565b60405180910390fd5b61083e828261141e565b5050565b8061084c3361089a565b101561088d576040517f08c379a000000000000000000000000000000000000000000000000000000000815260040161088490612000565b60405180910390fd5b6108973382611574565b50565b60008060008373ffffffffffffffffffffffffffffffffffffffff1673ffffffffffffffffffffffffffffffffffffffff168152602001908152602001600020549050919050565b600560009054906101000a900473ffffffffffffffffffffffffffffffffffffffff1681565b60606004805461091790611c96565b80601f016020809104026020016040519081016040528092919081815260200182805461094390611c96565b80156109905780601f1061096557610100808354040283529160200191610990565b820191906000526020600020905b81548152906001019060200180831161097357829003601f168201915b5050505050905090565b6000806109a5610de5565b905060006109b38286610d5e565b9050838110156109f8576040517f08c379a00000000000000000000000000000000000000000000000000000000081526004016109ef90612092565b60405180910390fd5b610a058286868403610ded565b60019250505092915050565b6000806006600084815260200190815260200160002060010154905060008111610a70576040517f08c379a0000000000000000000000000000000000000000000000000000000008152600401610a67906120fe565b60405180910390fd5b80610a7a3361089a565b1015610abb576040517f08c379a0000000000000000000000000000000000000000000000000000000008152600401610ab290612190565b60405180910390fd5b610ae7600560009054906101000a900473ffffffffffffffffffffffffffffffffffffffff1682610af2565b506001915050919050565b60008073ffffffffffffffffffffffffffffffffffffffff168373ffffffffffffffffffffffffffffffffffffffff1603610b62576040517f08c379a0000000000000000000000000000000000000000000000000000000008152600401610b5990612222565b60405180910390fd5b81610b6c3361089a565b1015610bad576040517f08c379a0000000000000000000000000000000000000000000000000000000008152600401610ba490612000565b60405180910390fd5b610bb8338484611042565b6001905092915050565b600560009054906101000a900473ffffffffffffffffffffffffffffffffffffffff1673ffffffffffffffffffffffffffffffffffffffff163373ffffffffffffffffffffffffffffffffffffffff1614610c52576040517f08c379a0000000000000000000000000000000000000000000000000000000008152600401610c4990611f94565b60405180910390fd5b604051806040016040528083815260200182815250600660008581526020019081526020016000206000820151816000019081610c8f91906123ee565b5060208201518160010155905050505050565b6006602052806000526040600020600091509050806000018054610cc590611c96565b80601f0160208091040260200160405190810160405280929190818152602001828054610cf190611c96565b8015610d3e5780601f10610d1357610100808354040283529160200191610d3e565b820191906000526020600020905b815481529060010190602001808311610d2157829003601f168201915b5050505050908060010154905082565b6000610d593361089a565b905090565b6000600160008473ffffffffffffffffffffffffffffffffffffffff1673ffffffffffffffffffffffffffffffffffffffff16815260200190815260200160002060008373ffffffffffffffffffffffffffffffffffffffff1673ffffffffffffffffffffffffffffffffffffffff16815260200190815260200160002054905092915050565b600033905090565b600073ffffffffffffffffffffffffffffffffffffffff168373ffffffffffffffffffffffffffffffffffffffff1603610e5c576040517f08c379a0000000000000000000000000000000000000000000000000000000008152600401610e5390612532565b60405180910390fd5b600073ffffffffffffffffffffffffffffffffffffffff168273ffffffffffffffffffffffffffffffffffffffff1603610ecb576040517f08c379a0000000000000000000000000000000000000000000000000000000008152600401610ec2906125c4565b60405180910390fd5b80600160008573ffffffffffffffffffffffffffffffffffffffff1673ffffffffffffffffffffffffffffffffffffffff16815260200190815260200160002060008473ffffffffffffffffffffffffffffffffffffffff1673ffffffffffffffffffffffffffffffffffffffff168152602001908152602001600020819055508173ffffffffffffffffffffffffffffffffffffffff168373ffffffffffffffffffffffffffffffffffffffff167f8c5be1e5ebec7d5bd14f71427d1e84f3dd0314c0f7b2291e5b200ac8c7c3b92583604051610fa9919061192a565b60405180910390a3505050565b6000610fc28484610d5e565b90507fffffffffffffffffffffffffffffffffffffffffffffffffffffffffffffffff811461103c578181101561102e576040517f08c379a000000000000000000000000000000000000000000000000000000000815260040161102590612630565b60405180910390fd5b61103b8484848403610ded565b5b50505050565b600073ffffffffffffffffffffffffffffffffffffffff168373ffffffffffffffffffffffffffffffffffffffff16036110b1576040517f08c379a00000000000000000000000000000000000000000000000000000000081526004016110a8906126c2565b60405180910390fd5b600073ffffffffffffffffffffffffffffffffffffffff168273ffffffffffffffffffffffffffffffffffffffff1603611120576040517f08c379a000000000000000000000000000000000000000000000000000000000815260040161111790612754565b60405180910390fd5b61112b838383611741565b60008060008573ffffffffffffffffffffffffffffffffffffffff1673ffffffffffffffffffffffffffffffffffffffff168152602001908152602001600020549050818110156111b1576040517f08c379a00000000000000000000000000000000000000000000000000000000081526004016111a8906127e6565b60405180910390fd5b8181036000808673ffffffffffffffffffffffffffffffffffffffff1673ffffffffffffffffffffffffffffffffffffffff16815260200190815260200160002081905550816000808573ffffffffffffffffffffffffffffffffffffffff1673ffffffffffffffffffffffffffffffffffffffff168152602001908152602001600020600082825401925050819055508273ffffffffffffffffffffffffffffffffffffffff168473ffffffffffffffffffffffffffffffffffffffff167fddf252ad1be2c89b69c2b068fc378daa952ba7f163c4a11628f55a4df523b3ef8460405161129f919061192a565b60405180910390a36112b2848484611746565b50505050565b6060600082036112ff576040518060400160405280600181526020017f30000000000000000000000000000000000000000000000000000000000000008152509050611419565b600082905060005b6000821461133157808061131a90611f00565b915050600a8261132a9190612835565b9150611307565b60008167ffffffffffffffff81111561134d5761134c611a5d565b5b6040519080825280601f01601f19166020018201604052801561137f5781602001600182028036833780820191505090505b50905060008290508593505b6000841461141157600a846113a09190612866565b60306113ac9190611cf6565b60f81b82826113ba90612897565b925082815181106113ce576113cd6128c0565b5b60200101907effffffffffffffffffffffffffffffffffffffffffffffffffffffffffffff1916908160001a905350600a8461140a9190612835565b935061138b565b819450505050505b919050565b600073ffffffffffffffffffffffffffffffffffffffff168273ffffffffffffffffffffffffffffffffffffffff160361148d576040517f08c379a00000000000000000000000000000000000000000000000000000000081526004016114849061293b565b60405180910390fd5b61149960008383611741565b80600260008282546114ab9190611cf6565b92505081905550806000808473ffffffffffffffffffffffffffffffffffffffff1673ffffffffffffffffffffffffffffffffffffffff168152602001908152602001600020600082825401925050819055508173ffffffffffffffffffffffffffffffffffffffff16600073ffffffffffffffffffffffffffffffffffffffff167fddf252ad1be2c89b69c2b068fc378daa952ba7f163c4a11628f55a4df523b3ef8360405161155c919061192a565b60405180910390a361157060008383611746565b5050565b600073ffffffffffffffffffffffffffffffffffffffff168273ffffffffffffffffffffffffffffffffffffffff16036115e3576040517f08c379a00000000000000000000000000000000000000000000000000000000081526004016115da906129cd565b60405180910390fd5b6115ef82600083611741565b60008060008473ffffffffffffffffffffffffffffffffffffffff1673ffffffffffffffffffffffffffffffffffffffff16815260200190815260200160002054905081811015611675576040517f08c379a000000000000000000000000000000000000000000000000000000000815260040161166c90612a5f565b60405180910390fd5b8181036000808573ffffffffffffffffffffffffffffffffffffffff1673ffffffffffffffffffffffffffffffffffffffff1681526020019081526020016000208190555081600260008282540392505081905550600073ffffffffffffffffffffffffffffffffffffffff168373ffffffffffffffffffffffffffffffffffffffff167fddf252ad1be2c89b69c2b068fc378daa952ba7f163c4a11628f55a4df523b3ef84604051611728919061192a565b60405180910390a361173c83600084611746565b505050565b505050565b505050565b600081519050919050565b600082825260208201905092915050565b60005b8381101561178557808201518184015260208101905061176a565b60008484015250505050565b6000601f19601f8301169050919050565b60006117ad8261174b565b6117b78185611756565b93506117c7818560208601611767565b6117d081611791565b840191505092915050565b600060208201905081810360008301526117f581846117a2565b905092915050565b6000604051905090565b600080fd5b600080fd5b600073ffffffffffffffffffffffffffffffffffffffff82169050919050565b600061183c82611811565b9050919050565b61184c81611831565b811461185757600080fd5b50565b60008135905061186981611843565b92915050565b6000819050919050565b6118828161186f565b811461188d57600080fd5b50565b60008135905061189f81611879565b92915050565b600080604083850312156118bc576118bb611807565b5b60006118ca8582860161185a565b92505060206118db85828601611890565b9150509250929050565b60008115159050919050565b6118fa816118e5565b82525050565b600060208201905061191560008301846118f1565b92915050565b6119248161186f565b82525050565b600060208201905061193f600083018461191b565b92915050565b60008060006060848603121561195e5761195d611807565b5b600061196c8682870161185a565b935050602061197d8682870161185a565b925050604061198e86828701611890565b9150509250925092565b600060ff82169050919050565b6119ae81611998565b82525050565b60006020820190506119c960008301846119a5565b92915050565b6000602082840312156119e5576119e4611807565b5b60006119f384828501611890565b91505092915050565b600060208284031215611a1257611a11611807565b5b6000611a208482850161185a565b91505092915050565b611a3281611831565b82525050565b6000602082019050611a4d6000830184611a29565b92915050565b600080fd5b600080fd5b7f4e487b7100000000000000000000000000000000000000000000000000000000600052604160045260246000fd5b611a9582611791565b810181811067ffffffffffffffff82111715611ab457611ab3611a5d565b5b80604052505050565b6000611ac76117fd565b9050611ad38282611a8c565b919050565b600067ffffffffffffffff821115611af357611af2611a5d565b5b611afc82611791565b9050602081019050919050565b82818337600083830152505050565b6000611b2b611b2684611ad8565b611abd565b905082815260208101848484011115611b4757611b46611a58565b5b611b52848285611b09565b509392505050565b600082601f830112611b6f57611b6e611a53565b5b8135611b7f848260208601611b18565b91505092915050565b600080600060608486031215611ba157611ba0611807565b5b6000611baf86828701611890565b935050602084013567ffffffffffffffff811115611bd057611bcf61180c565b5b611bdc86828701611b5a565b9250506040611bed86828701611890565b9150509250925092565b60006040820190508181036000830152611c1181856117a2565b9050611c20602083018461191b565b9392505050565b60008060408385031215611c3e57611c3d611807565b5b6000611c4c8582860161185a565b9250506020611c5d8582860161185a565b9150509250929050565b7f4e487b7100000000000000000000000000000000000000000000000000000000600052602260045260246000fd5b60006002820490506001821680611cae57607f821691505b602082108103611cc157611cc0611c67565b5b50919050565b7f4e487b7100000000000000000000000000000000000000000000000000000000600052601160045260246000fd5b6000611d018261186f565b9150611d0c8361186f565b9250828201905080821115611d2457611d23611cc7565b5b92915050565b600081905092915050565b6000611d408261174b565b611d4a8185611d2a565b9350611d5a818560208601611767565b80840191505092915050565b7f4974656d2049443a200000000000000000000000000000000000000000000000600082015250565b6000611d9c600983611d2a565b9150611da782611d66565b600982019050919050565b7f2c204e616d653a20000000000000000000000000000000000000000000000000600082015250565b6000611de8600883611d2a565b9150611df382611db2565b600882019050919050565b7f2c20436f73743a20000000000000000000000000000000000000000000000000600082015250565b6000611e34600883611d2a565b9150611e3f82611dfe565b600882019050919050565b7f20746f6b656e730a000000000000000000000000000000000000000000000000600082015250565b6000611e80600883611d2a565b9150611e8b82611e4a565b600882019050919050565b6000611ea28287611d35565b9150611ead82611d8f565b9150611eb98286611d35565b9150611ec482611ddb565b9150611ed08285611d35565b9150611edb82611e27565b9150611ee78284611d35565b9150611ef282611e73565b915081905095945050505050565b6000611f0b8261186f565b91507fffffffffffffffffffffffffffffffffffffffffffffffffffffffffffffffff8203611f3d57611f3c611cc7565b5b600182019050919050565b7f43616c6c6572206973206e6f7420746865206f776e6572000000000000000000600082015250565b6000611f7e601783611756565b9150611f8982611f48565b602082019050919050565b60006020820190508181036000830152611fad81611f71565b9050919050565b7f596f7520646f206e6f74206861766520656e6f75676820746f6b656e732e0000600082015250565b6000611fea601e83611756565b9150611ff582611fb4565b602082019050919050565b6000602082019050818103600083015261201981611fdd565b9050919050565b7f45524332303a2064656372656173656420616c6c6f77616e63652062656c6f7760008201527f207a65726f000000000000000000000000000000000000000000000000000000602082015250565b600061207c602583611756565b915061208782612020565b604082019050919050565b600060208201905081810360008301526120ab8161206f565b9050919050565b7f496e76616c6964206974656d2049440000000000000000000000000000000000600082015250565b60006120e8600f83611756565b91506120f3826120b2565b602082019050919050565b60006020820190508181036000830152612117816120db565b9050919050565b7f4e6f7420656e6f75676820746f6b656e7320746f2072656465656d207468697360008201527f206974656d000000000000000000000000000000000000000000000000000000602082015250565b600061217a602583611756565b91506121858261211e565b604082019050919050565b600060208201905081810360008301526121a98161216d565b9050919050565b7f5472616e7366657220746f20746865207a65726f20616464726573732069732060008201527f6e6f7420616c6c6f776564000000000000000000000000000000000000000000602082015250565b600061220c602b83611756565b9150612217826121b0565b604082019050919050565b6000602082019050818103600083015261223b816121ff565b9050919050565b60008190508160005260206000209050919050565b60006020601f8301049050919050565b600082821b905092915050565b6000600883026122a47fffffffffffffffffffffffffffffffffffffffffffffffffffffffffffffffff82612267565b6122ae8683612267565b95508019841693508086168417925050509392505050565b6000819050919050565b60006122eb6122e66122e18461186f565b6122c6565b61186f565b9050919050565b6000819050919050565b612305836122d0565b612319612311826122f2565b848454612274565b825550505050565b600090565b61232e612321565b6123398184846122fc565b505050565b5b8181101561235d57612352600082612326565b60018101905061233f565b5050565b601f8211156123a25761237381612242565b61237c84612257565b8101602085101561238b578190505b61239f61239785612257565b83018261233e565b50505b505050565b600082821c905092915050565b60006123c5600019846008026123a7565b1980831691505092915050565b60006123de83836123b4565b9150826002028217905092915050565b6123f78261174b565b67ffffffffffffffff8111156124105761240f611a5d565b5b61241a8254611c96565b612425828285612361565b600060209050601f8311600181146124585760008415612446578287015190505b61245085826123d2565b8655506124b8565b601f19841661246686612242565b60005b8281101561248e57848901518255600182019150602085019450602081019050612469565b868310156124ab57848901516124a7601f8916826123b4565b8355505b6001600288020188555050505b505050505050565b7f45524332303a20617070726f76652066726f6d20746865207a65726f2061646460008201527f7265737300000000000000000000000000000000000000000000000000000000602082015250565b600061251c602483611756565b9150612527826124c0565b604082019050919050565b6000602082019050818103600083015261254b8161250f565b9050919050565b7f45524332303a20617070726f766520746f20746865207a65726f20616464726560008201527f7373000000000000000000000000000000000000000000000000000000000000602082015250565b60006125ae602283611756565b91506125b982612552565b604082019050919050565b600060208201905081810360008301526125dd816125a1565b9050919050565b7f45524332303a20696e73756666696369656e7420616c6c6f77616e6365000000600082015250565b600061261a601d83611756565b9150612625826125e4565b602082019050919050565b600060208201905081810360008301526126498161260d565b9050919050565b7f45524332303a207472616e736665722066726f6d20746865207a65726f20616460008201527f6472657373000000000000000000000000000000000000000000000000000000602082015250565b60006126ac602583611756565b91506126b782612650565b604082019050919050565b600060208201905081810360008301526126db8161269f565b9050919050565b7f45524332303a207472616e7366657220746f20746865207a65726f206164647260008201527f6573730000000000000000000000000000000000000000000000000000000000602082015250565b600061273e602383611756565b9150612749826126e2565b604082019050919050565b6000602082019050818103600083015261276d81612731565b9050919050565b7f45524332303a207472616e7366657220616d6f756e742065786365656473206260008201527f616c616e63650000000000000000000000000000000000000000000000000000602082015250565b60006127d0602683611756565b91506127db82612774565b604082019050919050565b600060208201905081810360008301526127ff816127c3565b9050919050565b7f4e487b7100000000000000000000000000000000000000000000000000000000600052601260045260246000fd5b60006128408261186f565b915061284b8361186f565b92508261285b5761285a612806565b5b828204905092915050565b60006128718261186f565b915061287c8361186f565b92508261288c5761288b612806565b5b828206905092915050565b60006128a28261186f565b9150600082036128b5576128b4611cc7565b5b600182039050919050565b7f4e487b7100000000000000000000000000000000000000000000000000000000600052603260045260246000fd5b7f45524332303a206d696e7420746f20746865207a65726f206164647265737300600082015250565b6000612925601f83611756565b9150612930826128ef565b602082019050919050565b6000602082019050818103600083015261295481612918565b9050919050565b7f45524332303a206275726e2066726f6d20746865207a65726f2061646472657360008201527f7300000000000000000000000000000000000000000000000000000000000000602082015250565b60006129b7602183611756565b91506129c28261295b565b604082019050919050565b600060208201905081810360008301526129e6816129aa565b9050919050565b7f45524332303a206275726e20616d6f756e7420657863656564732062616c616e60008201527f6365000000000000000000000000000000000000000000000000000000000000602082015250565b6000612a49602283611756565b9150612a54826129ed565b604082019050919050565b60006020820190508181036000830152612a7881612a3c565b905091905056fea2646970667358221220bca3cdef0303dcf4e81c1fdb549cc81eca0ab74fe56c586e4b5272e7766296a864736f6c63430008120033",
  "linkReferences": {},
  "deployedLinkReferences": {}
}